{
  "contractName": "ehr",
  "abi": [
    {
      "constant": false,
      "inputs": [
        {
          "internalType": "address",
          "name": "doctor",
          "type": "address"
        },
        {
          "internalType": "string",
          "name": "name",
          "type": "string"
        },
        {
          "internalType": "uint256",
          "name": "password",
          "type": "uint256"
        }
      ],
      "name": "addDoctor",
      "outputs": [],
      "payable": false,
      "stateMutability": "nonpayable",
      "type": "function"
    },
    {
      "constant": true,
      "inputs": [],
      "name": "viewDoctors",
      "outputs": [
        {
          "internalType": "address[]",
          "name": "",
          "type": "address[]"
        },
        {
          "internalType": "string[]",
          "name": "",
          "type": "string[]"
        },
        {
          "internalType": "uint256[]",
          "name": "",
          "type": "uint256[]"
        }
      ],
      "payable": false,
      "stateMutability": "view",
      "type": "function"
    },
    {
      "constant": false,
      "inputs": [
        {
          "internalType": "address",
          "name": "patient",
          "type": "address"
        },
        {
          "internalType": "string",
          "name": "name",
          "type": "string"
        },
        {
          "internalType": "uint256",
          "name": "password",
          "type": "uint256"
        }
      ],
      "name": "addPatient",
      "outputs": [],
      "payable": false,
      "stateMutability": "nonpayable",
      "type": "function"
    },
    {
      "constant": true,
      "inputs": [],
      "name": "viewPatients",
      "outputs": [
        {
          "internalType": "address[]",
          "name": "",
          "type": "address[]"
        },
        {
          "internalType": "string[]",
          "name": "",
          "type": "string[]"
        },
        {
          "internalType": "uint256[]",
          "name": "",
          "type": "uint256[]"
        }
      ],
      "payable": false,
      "stateMutability": "view",
      "type": "function"
    },
    {
      "constant": false,
      "inputs": [
        {
          "internalType": "address",
          "name": "doctor",
          "type": "address"
        },
        {
          "internalType": "address",
          "name": "patient",
          "type": "address"
        },
        {
          "internalType": "string",
          "name": "date",
          "type": "string"
        }
      ],
      "name": "createAppointment",
      "outputs": [],
      "payable": false,
      "stateMutability": "nonpayable",
      "type": "function"
    },
    {
      "constant": false,
      "inputs": [
        {
          "internalType": "address",
          "name": "doctor",
          "type": "address"
        },
        {
          "internalType": "address",
          "name": "patient",
          "type": "address"
        },
        {
          "internalType": "string",
          "name": "cons",
          "type": "string"
        }
      ],
      "name": "treatPatient",
      "outputs": [],
      "payable": false,
      "stateMutability": "nonpayable",
      "type": "function"
    },
    {
      "constant": true,
      "inputs": [],
      "name": "viewAppointments",
      "outputs": [
        {
          "internalType": "address[]",
          "name": "",
          "type": "address[]"
        },
        {
          "internalType": "address[]",
          "name": "",
          "type": "address[]"
        },
        {
          "internalType": "string[]",
          "name": "",
          "type": "string[]"
        },
        {
          "internalType": "bool[]",
          "name": "",
          "type": "bool[]"
        },
        {
          "internalType": "string[]",
          "name": "",
          "type": "string[]"
        }
      ],
      "payable": false,
      "stateMutability": "view",
      "type": "function"
    }
  ],
  "bytecode": "0x608060405234801561001057600080fd5b50611485806100206000396000f3fe608060405234801561001057600080fd5b506004361061007d5760003560e01c8063bd9178af1161005b578063bd9178af146100e0578063e0eea17314610100578063e68c74771461011c578063ebda21ed146101385761007d565b806309e90fde14610082578063125ba7ca146100a45780631c13ab61146100c0575b600080fd5b61008a610154565b60405161009b95949392919061115e565b60405180910390f35b6100be60048036036100b99190810190610e3f565b6104c4565b005b6100c8610628565b6040516100d7939291906111d4565b60405180910390f35b6100e86107fb565b6040516100f7939291906111d4565b60405180910390f35b61011a60048036036101159190810190610ea6565b6109ce565b005b61013660048036036101319190810190610e3f565b610aa4565b005b610152600480360361014d9190810190610ea6565b610c46565b005b6060806060806060600760066009600a6008848054806020026020016040519081016040528092919081815260200182805480156101e757602002820191906000526020600020905b8160009054906101000a900473ffffffffffffffffffffffffffffffffffffffff1673ffffffffffffffffffffffffffffffffffffffff168152602001906001019080831161019d575b505050505094508380548060200260200160405190810160405280929190818152602001828054801561026f57602002820191906000526020600020905b8160009054906101000a900473ffffffffffffffffffffffffffffffffffffffff1673ffffffffffffffffffffffffffffffffffffffff1681526020019060010190808311610225575b5050505050935082805480602002602001604051908101604052809291908181526020016000905b82821015610353578382906000526020600020018054600181600116156101000203166002900480601f01602080910402602001604051908101604052809291908181526020018280546001816001161561010002031660029004801561033f5780601f106103145761010080835404028352916020019161033f565b820191906000526020600020905b81548152906001019060200180831161032257829003601f168201915b505050505081526020019060010190610297565b505050509250818054806020026020016040519081016040528092919081815260200182805480156103c957602002820191906000526020600020906000905b82829054906101000a900460ff161515815260200190600101906020826000010492830192600103820291508084116103935790505b5050505050915080805480602002602001604051908101604052809291908181526020016000905b828210156104ad578382906000526020600020018054600181600116156101000203166002900480601f0160208091040260200160405190810160405280929190818152602001828054600181600116156101000203166002900480156104995780601f1061046e57610100808354040283529160200191610499565b820191906000526020600020905b81548152906001019060200180831161047c57829003601f168201915b5050505050815260200190600101906103f1565b505050509050945094509450945094509091929394565b60008090505b600780549050811015610622578373ffffffffffffffffffffffffffffffffffffffff16600782815481106104fb57fe5b9060005260206000200160009054906101000a900473ffffffffffffffffffffffffffffffffffffffff1673ffffffffffffffffffffffffffffffffffffffff161480156105ab57508273ffffffffffffffffffffffffffffffffffffffff166006828154811061056857fe5b9060005260206000200160009054906101000a900473ffffffffffffffffffffffffffffffffffffffff1673ffffffffffffffffffffffffffffffffffffffff16145b15610615576001600a82815481106105bf57fe5b90600052602060002090602091828204019190066101000a81548160ff02191690831515021790555081600882815481106105f657fe5b906000526020600020019080519060200190610613929190610d1c565b505b80806001019150506104ca565b50505050565b6060806060600360046005828054806020026020016040519081016040528092919081815260200182805480156106b457602002820191906000526020600020905b8160009054906101000a900473ffffffffffffffffffffffffffffffffffffffff1673ffffffffffffffffffffffffffffffffffffffff168152602001906001019080831161066a575b5050505050925081805480602002602001604051908101604052809291908181526020016000905b82821015610798578382906000526020600020018054600181600116156101000203166002900480601f0160208091040260200160405190810160405280929190818152602001828054600181600116156101000203166002900480156107845780601f1061075957610100808354040283529160200191610784565b820191906000526020600020905b81548152906001019060200180831161076757829003601f168201915b5050505050815260200190600101906106dc565b505050509150808054806020026020016040519081016040528092919081815260200182805480156107e957602002820191906000526020600020905b8154815260200190600101908083116107d5575b50505050509050925092509250909192565b60608060606000600160028280548060200260200160405190810160405280929190818152602001828054801561088757602002820191906000526020600020905b8160009054906101000a900473ffffffffffffffffffffffffffffffffffffffff1673ffffffffffffffffffffffffffffffffffffffff168152602001906001019080831161083d575b5050505050925081805480602002602001604051908101604052809291908181526020016000905b8282101561096b578382906000526020600020018054600181600116156101000203166002900480601f0160208091040260200160405190810160405280929190818152602001828054600181600116156101000203166002900480156109575780601f1061092c57610100808354040283529160200191610957565b820191906000526020600020905b81548152906001019060200180831161093a57829003601f168201915b5050505050815260200190600101906108af565b505050509150808054806020026020016040519081016040528092919081815260200182805480156109bc57602002820191906000526020600020905b8154815260200190600101908083116109a8575b50505050509050925092509250909192565b60008390806001815401808255809150509060018203906000526020600020016000909192909190916101000a81548173ffffffffffffffffffffffffffffffffffffffff021916908373ffffffffffffffffffffffffffffffffffffffff160217905550506001829080600181540180825580915050906001820390600052602060002001600090919290919091509080519060200190610a71929190610d1c565b50506002819080600181540180825580915050906001820390600052602060002001600090919290919091505550505050565b60078390806001815401808255809150509060018203906000526020600020016000909192909190916101000a81548173ffffffffffffffffffffffffffffffffffffffff021916908373ffffffffffffffffffffffffffffffffffffffff1602179055505060068290806001815401808255809150509060018203906000526020600020016000909192909190916101000a81548173ffffffffffffffffffffffffffffffffffffffff021916908373ffffffffffffffffffffffffffffffffffffffff160217905550506009819080600181540180825580915050906001820390600052602060002001600090919290919091509080519060200190610bad929190610d1c565b5050600a6000908060018154018082558091505090600182039060005260206000209060209182820401919006909192909190916101000a81548160ff0219169083151502179055505060088060018154018082558091505090600182039060005260206000200160006040518060200160405280600081525090919091509080519060200190610c3f929190610d1c565b5050505050565b60038390806001815401808255809150509060018203906000526020600020016000909192909190916101000a81548173ffffffffffffffffffffffffffffffffffffffff021916908373ffffffffffffffffffffffffffffffffffffffff160217905550506004829080600181540180825580915050906001820390600052602060002001600090919290919091509080519060200190610ce9929190610d1c565b50506005819080600181540180825580915050906001820390600052602060002001600090919290919091505550505050565b828054600181600116156101000203166002900490600052602060002090601f016020900481019282601f10610d5d57805160ff1916838001178555610d8b565b82800160010185558215610d8b579182015b82811115610d8a578251825591602001919060010190610d6f565b5b509050610d989190610d9c565b5090565b610dbe91905b80821115610dba576000816000905550600101610da2565b5090565b90565b600081359050610dd081611414565b92915050565b600082601f830112610de757600080fd5b8135610dfa610df58261124d565b611220565b91508082526020830160208301858383011115610e1657600080fd5b610e218382846113c1565b50505092915050565b600081359050610e398161142b565b92915050565b600080600060608486031215610e5457600080fd5b6000610e6286828701610dc1565b9350506020610e7386828701610dc1565b925050604084013567ffffffffffffffff811115610e9057600080fd5b610e9c86828701610dd6565b9150509250925092565b600080600060608486031215610ebb57600080fd5b6000610ec986828701610dc1565b935050602084013567ffffffffffffffff811115610ee657600080fd5b610ef286828701610dd6565b9250506040610f0386828701610e2a565b9150509250925092565b6000610f198383610f69565b60208301905092915050565b6000610f318383611107565b60208301905092915050565b6000610f498383611116565b905092915050565b6000610f5d838361114f565b60208301905092915050565b610f7281611379565b82525050565b6000610f83826112b9565b610f8d8185611324565b9350610f9883611279565b8060005b83811015610fc9578151610fb08882610f0d565b9750610fbb836112f0565b925050600181019050610f9c565b5085935050505092915050565b6000610fe1826112c4565b610feb8185611335565b9350610ff683611289565b8060005b8381101561102757815161100e8882610f25565b9750611019836112fd565b925050600181019050610ffa565b5085935050505092915050565b600061103f826112cf565b6110498185611346565b93508360208202850161105b85611299565b8060005b8581101561109757848403895281516110788582610f3d565b94506110838361130a565b925060208a0199505060018101905061105f565b50829750879550505050505092915050565b60006110b4826112da565b6110be8185611357565b93506110c9836112a9565b8060005b838110156110fa5781516110e18882610f51565b97506110ec83611317565b9250506001810190506110cd565b5085935050505092915050565b6111108161138b565b82525050565b6000611121826112e5565b61112b8185611368565b935061113b8185602086016113d0565b61114481611403565b840191505092915050565b611158816113b7565b82525050565b600060a08201905081810360008301526111788188610f78565b9050818103602083015261118c8187610f78565b905081810360408301526111a08186611034565b905081810360608301526111b48185610fd6565b905081810360808301526111c88184611034565b90509695505050505050565b600060608201905081810360008301526111ee8186610f78565b905081810360208301526112028185611034565b9050818103604083015261121681846110a9565b9050949350505050565b6000604051905081810181811067ffffffffffffffff8211171561124357600080fd5b8060405250919050565b600067ffffffffffffffff82111561126457600080fd5b601f19601f8301169050602081019050919050565b6000819050602082019050919050565b6000819050602082019050919050565b6000819050602082019050919050565b6000819050602082019050919050565b600081519050919050565b600081519050919050565b600081519050919050565b600081519050919050565b600081519050919050565b6000602082019050919050565b6000602082019050919050565b6000602082019050919050565b6000602082019050919050565b600082825260208201905092915050565b600082825260208201905092915050565b600082825260208201905092915050565b600082825260208201905092915050565b600082825260208201905092915050565b600061138482611397565b9050919050565b60008115159050919050565b600073ffffffffffffffffffffffffffffffffffffffff82169050919050565b6000819050919050565b82818337600083830152505050565b60005b838110156113ee5780820151818401526020810190506113d3565b838111156113fd576000848401525b50505050565b6000601f19601f8301169050919050565b61141d81611379565b811461142857600080fd5b50565b611434816113b7565b811461143f57600080fd5b5056fea365627a7a72315820eed80e04124551e13aa1291ecdd9cd633eaf9ce62c07f237840ef1e21ca38ee26c6578706572696d656e74616cf564736f6c63430005100040",
  "source": "// SPDX-License-Identifier: MIT\npragma solidity >=0.4.22 <0.9.0;\npragma experimental ABIEncoderV2;\n\ncontract ehr {\n  \n  address[] _doctors;\n  string[] _dnames;\n  uint[] _dpasswords;\n\n  address[] _patients;\n  string[] _pnames;\n  uint[] _ppasswords;\n\n  address[] _cpatients;\n  address[] _cdoctors;\n  string[] _cmessages;\n  string[] _cdates;\n  bool[] _cstatus;\n\n  function addDoctor(address doctor, string memory name, uint password) public {\n    _doctors.push(doctor);\n    _dnames.push(name);\n    _dpasswords.push(password);\n  }\n\n  function viewDoctors() public view returns(address[] memory, string[] memory, uint[] memory) {\n    return(_doctors,_dnames,_dpasswords);\n  }\n\n  function addPatient(address patient, string memory name, uint password) public {\n    _patients.push(patient);\n    _pnames.push(name);\n    _ppasswords.push(password);\n  }\n\n  function viewPatients() public view returns(address[] memory, string[] memory, uint[] memory){\n    return(_patients,_pnames,_ppasswords);\n  }\n\n  function createAppointment(address doctor, address patient, string memory date) public {\n    _cdoctors.push(doctor);\n    _cpatients.push(patient);\n    _cdates.push(date);\n    _cstatus.push(false);\n    _cmessages.push(\"\");\n  }\n\n  function treatPatient(address doctor, address patient, string memory cons) public{\n\n    uint i;\n    for(i=0;i<_cdoctors.length;i++) {\n      if(_cdoctors[i]==doctor && _cpatients[i]==patient) {\n        _cstatus[i]=true;\n        _cmessages[i]=cons;\n      }\n    }\n  }\n\n  function viewAppointments() public view returns(address[] memory, address[] memory,string[] memory,bool[] memory,string[] memory) {\n    return (_cdoctors,_cpatients,_cdates,_cstatus,_cmessages);\n  }\n\n}\n",
  "sourcePath": "/Users/maddysravs/ehr-blockchain/contracts/ehr.sol",
  "compiler": {
    "name": "solc",
    "version": "0.5.16+commit.9c3226ce.Emscripten.clang"
  },
  "schemaVersion": "3.4.7",
  "updatedAt": "2022-07-01T21:52:45.895Z",
  "networkType": "ethereum",
  "devdoc": {
    "methods": {}
  },
  "userdoc": {
    "methods": {}
  }
}